{
  "_format": "hh-sol-artifact-1",
  "contractName": "multiNFT",
  "sourceName": "contracts/multiNFT.sol",
  "abi": [
    {
      "inputs": [],
      "stateMutability": "nonpayable",
      "type": "constructor"
    },
    {
      "inputs": [
        {
          "internalType": "address",
          "name": "sender",
          "type": "address"
        },
        {
          "internalType": "uint256",
          "name": "tokenId",
          "type": "uint256"
        },
        {
          "internalType": "address",
          "name": "owner",
          "type": "address"
        }
      ],
      "name": "ERC721IncorrectOwner",
      "type": "error"
    },
    {
      "inputs": [
        {
          "internalType": "address",
          "name": "operator",
          "type": "address"
        },
        {
          "internalType": "uint256",
          "name": "tokenId",
          "type": "uint256"
        }
      ],
      "name": "ERC721InsufficientApproval",
      "type": "error"
    },
    {
      "inputs": [
        {
          "internalType": "address",
          "name": "approver",
          "type": "address"
        }
      ],
      "name": "ERC721InvalidApprover",
      "type": "error"
    },
    {
      "inputs": [
        {
          "internalType": "address",
          "name": "operator",
          "type": "address"
        }
      ],
      "name": "ERC721InvalidOperator",
      "type": "error"
    },
    {
      "inputs": [
        {
          "internalType": "address",
          "name": "owner",
          "type": "address"
        }
      ],
      "name": "ERC721InvalidOwner",
      "type": "error"
    },
    {
      "inputs": [
        {
          "internalType": "address",
          "name": "receiver",
          "type": "address"
        }
      ],
      "name": "ERC721InvalidReceiver",
      "type": "error"
    },
    {
      "inputs": [
        {
          "internalType": "address",
          "name": "sender",
          "type": "address"
        }
      ],
      "name": "ERC721InvalidSender",
      "type": "error"
    },
    {
      "inputs": [
        {
          "internalType": "uint256",
          "name": "tokenId",
          "type": "uint256"
        }
      ],
      "name": "ERC721NonexistentToken",
      "type": "error"
    },
    {
      "anonymous": false,
      "inputs": [
        {
          "indexed": true,
          "internalType": "address",
          "name": "owner",
          "type": "address"
        },
        {
          "indexed": true,
          "internalType": "address",
          "name": "approved",
          "type": "address"
        },
        {
          "indexed": true,
          "internalType": "uint256",
          "name": "tokenId",
          "type": "uint256"
        }
      ],
      "name": "Approval",
      "type": "event"
    },
    {
      "anonymous": false,
      "inputs": [
        {
          "indexed": true,
          "internalType": "address",
          "name": "owner",
          "type": "address"
        },
        {
          "indexed": true,
          "internalType": "address",
          "name": "operator",
          "type": "address"
        },
        {
          "indexed": false,
          "internalType": "bool",
          "name": "approved",
          "type": "bool"
        }
      ],
      "name": "ApprovalForAll",
      "type": "event"
    },
    {
      "anonymous": false,
      "inputs": [
        {
          "indexed": false,
          "internalType": "uint256",
          "name": "_fromTokenId",
          "type": "uint256"
        },
        {
          "indexed": false,
          "internalType": "uint256",
          "name": "_toTokenId",
          "type": "uint256"
        }
      ],
      "name": "BatchMetadataUpdate",
      "type": "event"
    },
    {
      "anonymous": false,
      "inputs": [
        {
          "indexed": false,
          "internalType": "uint256",
          "name": "_tokenId",
          "type": "uint256"
        }
      ],
      "name": "MetadataUpdate",
      "type": "event"
    },
    {
      "anonymous": false,
      "inputs": [
        {
          "indexed": true,
          "internalType": "address",
          "name": "from",
          "type": "address"
        },
        {
          "indexed": true,
          "internalType": "address",
          "name": "to",
          "type": "address"
        },
        {
          "indexed": true,
          "internalType": "uint256",
          "name": "tokenId",
          "type": "uint256"
        }
      ],
      "name": "Transfer",
      "type": "event"
    },
    {
      "inputs": [
        {
          "internalType": "address",
          "name": "to",
          "type": "address"
        },
        {
          "internalType": "uint256",
          "name": "tokenId",
          "type": "uint256"
        }
      ],
      "name": "approve",
      "outputs": [],
      "stateMutability": "nonpayable",
      "type": "function"
    },
    {
      "inputs": [
        {
          "internalType": "address",
          "name": "owner",
          "type": "address"
        }
      ],
      "name": "balanceOf",
      "outputs": [
        {
          "internalType": "uint256",
          "name": "",
          "type": "uint256"
        }
      ],
      "stateMutability": "view",
      "type": "function"
    },
    {
      "inputs": [
        {
          "internalType": "uint256",
          "name": "tokenId",
          "type": "uint256"
        }
      ],
      "name": "getApproved",
      "outputs": [
        {
          "internalType": "address",
          "name": "",
          "type": "address"
        }
      ],
      "stateMutability": "view",
      "type": "function"
    },
    {
      "inputs": [
        {
          "internalType": "address",
          "name": "owner",
          "type": "address"
        },
        {
          "internalType": "address",
          "name": "operator",
          "type": "address"
        }
      ],
      "name": "isApprovedForAll",
      "outputs": [
        {
          "internalType": "bool",
          "name": "",
          "type": "bool"
        }
      ],
      "stateMutability": "view",
      "type": "function"
    },
    {
      "inputs": [],
      "name": "name",
      "outputs": [
        {
          "internalType": "string",
          "name": "",
          "type": "string"
        }
      ],
      "stateMutability": "view",
      "type": "function"
    },
    {
      "inputs": [],
      "name": "owner",
      "outputs": [
        {
          "internalType": "address",
          "name": "",
          "type": "address"
        }
      ],
      "stateMutability": "view",
      "type": "function"
    },
    {
      "inputs": [
        {
          "internalType": "uint256",
          "name": "tokenId",
          "type": "uint256"
        }
      ],
      "name": "ownerOf",
      "outputs": [
        {
          "internalType": "address",
          "name": "",
          "type": "address"
        }
      ],
      "stateMutability": "view",
      "type": "function"
    },
    {
      "inputs": [
        {
          "internalType": "address",
          "name": "to",
          "type": "address"
        }
      ],
      "name": "safeMint",
      "outputs": [],
      "stateMutability": "nonpayable",
      "type": "function"
    },
    {
      "inputs": [
        {
          "internalType": "address",
          "name": "from",
          "type": "address"
        },
        {
          "internalType": "address",
          "name": "to",
          "type": "address"
        },
        {
          "internalType": "uint256",
          "name": "tokenId",
          "type": "uint256"
        }
      ],
      "name": "safeTransferFrom",
      "outputs": [],
      "stateMutability": "nonpayable",
      "type": "function"
    },
    {
      "inputs": [
        {
          "internalType": "address",
          "name": "from",
          "type": "address"
        },
        {
          "internalType": "address",
          "name": "to",
          "type": "address"
        },
        {
          "internalType": "uint256",
          "name": "tokenId",
          "type": "uint256"
        },
        {
          "internalType": "bytes",
          "name": "data",
          "type": "bytes"
        }
      ],
      "name": "safeTransferFrom",
      "outputs": [],
      "stateMutability": "nonpayable",
      "type": "function"
    },
    {
      "inputs": [
        {
          "internalType": "address",
          "name": "operator",
          "type": "address"
        },
        {
          "internalType": "bool",
          "name": "approved",
          "type": "bool"
        }
      ],
      "name": "setApprovalForAll",
      "outputs": [],
      "stateMutability": "nonpayable",
      "type": "function"
    },
    {
      "inputs": [
        {
          "internalType": "bytes4",
          "name": "interfaceId",
          "type": "bytes4"
        }
      ],
      "name": "supportsInterface",
      "outputs": [
        {
          "internalType": "bool",
          "name": "",
          "type": "bool"
        }
      ],
      "stateMutability": "view",
      "type": "function"
    },
    {
      "inputs": [],
      "name": "symbol",
      "outputs": [
        {
          "internalType": "string",
          "name": "",
          "type": "string"
        }
      ],
      "stateMutability": "view",
      "type": "function"
    },
    {
      "inputs": [
        {
          "internalType": "uint256",
          "name": "tokenId",
          "type": "uint256"
        }
      ],
      "name": "tokenURI",
      "outputs": [
        {
          "internalType": "string",
          "name": "",
          "type": "string"
        }
      ],
      "stateMutability": "view",
      "type": "function"
    },
    {
      "inputs": [
        {
          "internalType": "address",
          "name": "from",
          "type": "address"
        },
        {
          "internalType": "address",
          "name": "to",
          "type": "address"
        },
        {
          "internalType": "uint256",
          "name": "tokenId",
          "type": "uint256"
        }
      ],
      "name": "transferFrom",
      "outputs": [],
      "stateMutability": "nonpayable",
      "type": "function"
    }
  ],
  "bytecode": "0x608060405260006007553480156200001657600080fd5b506040518060400160405280600c81526020017f4d756c7469706c654e46547300000000000000000000000000000000000000008152506040518060400160405280600581526020017f4d4e46547300000000000000000000000000000000000000000000000000000081525081600090816200009491906200036a565b508060019081620000a691906200036a565b50505033600860006101000a81548173ffffffffffffffffffffffffffffffffffffffff021916908373ffffffffffffffffffffffffffffffffffffffff16021790555062000451565b600081519050919050565b7f4e487b7100000000000000000000000000000000000000000000000000000000600052604160045260246000fd5b7f4e487b7100000000000000000000000000000000000000000000000000000000600052602260045260246000fd5b600060028204905060018216806200017257607f821691505b6020821081036200018857620001876200012a565b5b50919050565b60008190508160005260206000209050919050565b60006020601f8301049050919050565b600082821b905092915050565b600060088302620001f27fffffffffffffffffffffffffffffffffffffffffffffffffffffffffffffffff82620001b3565b620001fe8683620001b3565b95508019841693508086168417925050509392505050565b6000819050919050565b6000819050919050565b60006200024b620002456200023f8462000216565b62000220565b62000216565b9050919050565b6000819050919050565b62000267836200022a565b6200027f620002768262000252565b848454620001c0565b825550505050565b600090565b6200029662000287565b620002a38184846200025c565b505050565b5b81811015620002cb57620002bf6000826200028c565b600181019050620002a9565b5050565b601f8211156200031a57620002e4816200018e565b620002ef84620001a3565b81016020851015620002ff578190505b620003176200030e85620001a3565b830182620002a8565b50505b505050565b600082821c905092915050565b60006200033f600019846008026200031f565b1980831691505092915050565b60006200035a83836200032c565b9150826002028217905092915050565b6200037582620000f0565b67ffffffffffffffff811115620003915762000390620000fb565b5b6200039d825462000159565b620003aa828285620002cf565b600060209050601f831160018114620003e25760008415620003cd578287015190505b620003d985826200034c565b86555062000449565b601f198416620003f2866200018e565b60005b828110156200041c57848901518255600182019150602085019450602081019050620003f5565b868310156200043c578489015162000438601f8916826200032c565b8355505b6001600288020188555050505b505050505050565b611fc080620004616000396000f3fe608060405234801561001057600080fd5b50600436106100f55760003560e01c80636352211e11610097578063a22cb46511610066578063a22cb46514610284578063b88d4fde146102a0578063c87b56dd146102bc578063e985e9c5146102ec576100f5565b80636352211e146101e857806370a08231146102185780638da5cb5b1461024857806395d89b4114610266576100f5565b8063095ea7b3116100d3578063095ea7b31461017857806323b872dd1461019457806340d097c3146101b057806342842e0e146101cc576100f5565b806301ffc9a7146100fa57806306fdde031461012a578063081812fc14610148575b600080fd5b610114600480360381019061010f91906116f9565b61031c565b6040516101219190611741565b60405180910390f35b61013261032e565b60405161013f91906117ec565b60405180910390f35b610162600480360381019061015d9190611844565b6103c0565b60405161016f91906118b2565b60405180910390f35b610192600480360381019061018d91906118f9565b6103dc565b005b6101ae60048036038101906101a99190611939565b6103f2565b005b6101ca60048036038101906101c5919061198c565b6104f4565b005b6101e660048036038101906101e19190611939565b61051b565b005b61020260048036038101906101fd9190611844565b61053b565b60405161020f91906118b2565b60405180910390f35b610232600480360381019061022d919061198c565b61054d565b60405161023f91906119c8565b60405180910390f35b610250610607565b60405161025d91906118b2565b60405180910390f35b61026e61062d565b60405161027b91906117ec565b60405180910390f35b61029e60048036038101906102999190611a0f565b6106bf565b005b6102ba60048036038101906102b59190611b84565b6106d5565b005b6102d660048036038101906102d19190611844565b6106f2565b6040516102e391906117ec565b60405180910390f35b61030660048036038101906103019190611c07565b610732565b6040516103139190611741565b60405180910390f35b6000610327826107c6565b9050919050565b60606000805461033d90611c76565b80601f016020809104026020016040519081016040528092919081815260200182805461036990611c76565b80156103b65780601f1061038b576101008083540402835291602001916103b6565b820191906000526020600020905b81548152906001019060200180831161039957829003601f168201915b5050505050905090565b60006103cb82610827565b506103d5826108af565b9050919050565b6103ee82826103e96108ec565b6108f4565b5050565b600073ffffffffffffffffffffffffffffffffffffffff168273ffffffffffffffffffffffffffffffffffffffff16036104645760006040517f64a0ae9200000000000000000000000000000000000000000000000000000000815260040161045b91906118b2565b60405180910390fd5b600061047883836104736108ec565b610906565b90508373ffffffffffffffffffffffffffffffffffffffff168173ffffffffffffffffffffffffffffffffffffffff16146104ee578382826040517f64283d7b0000000000000000000000000000000000000000000000000000000081526004016104e593929190611ca7565b60405180910390fd5b50505050565b600060076000815461050590611d0d565b91905081905590506105178282610b20565b5050565b610536838383604051806020016040528060008152506106d5565b505050565b600061054682610827565b9050919050565b60008073ffffffffffffffffffffffffffffffffffffffff168273ffffffffffffffffffffffffffffffffffffffff16036105c05760006040517f89c62b640000000000000000000000000000000000000000000000000000000081526004016105b791906118b2565b60405180910390fd5b600360008373ffffffffffffffffffffffffffffffffffffffff1673ffffffffffffffffffffffffffffffffffffffff168152602001908152602001600020549050919050565b600860009054906101000a900473ffffffffffffffffffffffffffffffffffffffff1681565b60606001805461063c90611c76565b80601f016020809104026020016040519081016040528092919081815260200182805461066890611c76565b80156106b55780601f1061068a576101008083540402835291602001916106b5565b820191906000526020600020905b81548152906001019060200180831161069857829003601f168201915b5050505050905090565b6106d16106ca6108ec565b8383610b3e565b5050565b6106e08484846103f2565b6106ec84848484610cad565b50505050565b606060006106fe610e64565b90508061070a84610e84565b60405160200161071b929190611db7565b604051602081830303815290604052915050919050565b6000600560008473ffffffffffffffffffffffffffffffffffffffff1673ffffffffffffffffffffffffffffffffffffffff16815260200190815260200160002060008373ffffffffffffffffffffffffffffffffffffffff1673ffffffffffffffffffffffffffffffffffffffff16815260200190815260200160002060009054906101000a900460ff16905092915050565b6000634906490660e01b7bffffffffffffffffffffffffffffffffffffffffffffffffffffffff1916827bffffffffffffffffffffffffffffffffffffffffffffffffffffffff19161480610820575061081f82610f52565b5b9050919050565b60008061083383611034565b9050600073ffffffffffffffffffffffffffffffffffffffff168173ffffffffffffffffffffffffffffffffffffffff16036108a657826040517f7e27328900000000000000000000000000000000000000000000000000000000815260040161089d91906119c8565b60405180910390fd5b80915050919050565b60006004600083815260200190815260200160002060009054906101000a900473ffffffffffffffffffffffffffffffffffffffff169050919050565b600033905090565b6109018383836001611071565b505050565b60008061091284611034565b9050600073ffffffffffffffffffffffffffffffffffffffff168373ffffffffffffffffffffffffffffffffffffffff161461095457610953818486611236565b5b600073ffffffffffffffffffffffffffffffffffffffff168173ffffffffffffffffffffffffffffffffffffffff16146109e557610996600085600080611071565b6001600360008373ffffffffffffffffffffffffffffffffffffffff1673ffffffffffffffffffffffffffffffffffffffff168152602001908152602001600020600082825403925050819055505b600073ffffffffffffffffffffffffffffffffffffffff168573ffffffffffffffffffffffffffffffffffffffff1614610a68576001600360008773ffffffffffffffffffffffffffffffffffffffff1673ffffffffffffffffffffffffffffffffffffffff168152602001908152602001600020600082825401925050819055505b846002600086815260200190815260200160002060006101000a81548173ffffffffffffffffffffffffffffffffffffffff021916908373ffffffffffffffffffffffffffffffffffffffff160217905550838573ffffffffffffffffffffffffffffffffffffffff168273ffffffffffffffffffffffffffffffffffffffff167fddf252ad1be2c89b69c2b068fc378daa952ba7f163c4a11628f55a4df523b3ef60405160405180910390a4809150509392505050565b610b3a8282604051806020016040528060008152506112fa565b5050565b600073ffffffffffffffffffffffffffffffffffffffff168273ffffffffffffffffffffffffffffffffffffffff1603610baf57816040517f5b08ba18000000000000000000000000000000000000000000000000000000008152600401610ba691906118b2565b60405180910390fd5b80600560008573ffffffffffffffffffffffffffffffffffffffff1673ffffffffffffffffffffffffffffffffffffffff16815260200190815260200160002060008473ffffffffffffffffffffffffffffffffffffffff1673ffffffffffffffffffffffffffffffffffffffff16815260200190815260200160002060006101000a81548160ff0219169083151502179055508173ffffffffffffffffffffffffffffffffffffffff168373ffffffffffffffffffffffffffffffffffffffff167f17307eab39ab6107e8899845ad3d59bd9653f200f220920489ca2b5937696c3183604051610ca09190611741565b60405180910390a3505050565b60008373ffffffffffffffffffffffffffffffffffffffff163b1115610e5e578273ffffffffffffffffffffffffffffffffffffffff1663150b7a02610cf16108ec565b8685856040518563ffffffff1660e01b8152600401610d139493929190611e3f565b6020604051808303816000875af1925050508015610d4f57506040513d601f19601f82011682018060405250810190610d4c9190611ea0565b60015b610dd3573d8060008114610d7f576040519150601f19603f3d011682016040523d82523d6000602084013e610d84565b606091505b506000815103610dcb57836040517f64a0ae92000000000000000000000000000000000000000000000000000000008152600401610dc291906118b2565b60405180910390fd5b805181602001fd5b63150b7a0260e01b7bffffffffffffffffffffffffffffffffffffffffffffffffffffffff1916817bffffffffffffffffffffffffffffffffffffffffffffffffffffffff191614610e5c57836040517f64a0ae92000000000000000000000000000000000000000000000000000000008152600401610e5391906118b2565b60405180910390fd5b505b50505050565b60606040518060a0016040528060658152602001611f2660659139905090565b606060006001610e9384611316565b01905060008167ffffffffffffffff811115610eb257610eb1611a59565b5b6040519080825280601f01601f191660200182016040528015610ee45781602001600182028036833780820191505090505b509050600082602001820190505b600115610f47578080600190039150507f3031323334353637383961626364656600000000000000000000000000000000600a86061a8153600a8581610f3b57610f3a611ecd565b5b04945060008503610ef2575b819350505050919050565b60007f80ac58cd000000000000000000000000000000000000000000000000000000007bffffffffffffffffffffffffffffffffffffffffffffffffffffffff1916827bffffffffffffffffffffffffffffffffffffffffffffffffffffffff1916148061101d57507f5b5e139f000000000000000000000000000000000000000000000000000000007bffffffffffffffffffffffffffffffffffffffffffffffffffffffff1916827bffffffffffffffffffffffffffffffffffffffffffffffffffffffff1916145b8061102d575061102c82611469565b5b9050919050565b60006002600083815260200190815260200160002060009054906101000a900473ffffffffffffffffffffffffffffffffffffffff169050919050565b80806110aa5750600073ffffffffffffffffffffffffffffffffffffffff168273ffffffffffffffffffffffffffffffffffffffff1614155b156111de5760006110ba84610827565b9050600073ffffffffffffffffffffffffffffffffffffffff168373ffffffffffffffffffffffffffffffffffffffff161415801561112557508273ffffffffffffffffffffffffffffffffffffffff168173ffffffffffffffffffffffffffffffffffffffff1614155b801561113857506111368184610732565b155b1561117a57826040517fa9fbf51f00000000000000000000000000000000000000000000000000000000815260040161117191906118b2565b60405180910390fd5b81156111dc57838573ffffffffffffffffffffffffffffffffffffffff168273ffffffffffffffffffffffffffffffffffffffff167f8c5be1e5ebec7d5bd14f71427d1e84f3dd0314c0f7b2291e5b200ac8c7c3b92560405160405180910390a45b505b836004600085815260200190815260200160002060006101000a81548173ffffffffffffffffffffffffffffffffffffffff021916908373ffffffffffffffffffffffffffffffffffffffff16021790555050505050565b6112418383836114d3565b6112f557600073ffffffffffffffffffffffffffffffffffffffff168373ffffffffffffffffffffffffffffffffffffffff16036112b657806040517f7e2732890000000000000000000000000000000000000000000000000000000081526004016112ad91906119c8565b60405180910390fd5b81816040517f177e802f0000000000000000000000000000000000000000000000000000000081526004016112ec929190611efc565b60405180910390fd5b505050565b6113048383611594565b6113116000848484610cad565b505050565b600080600090507a184f03e93ff9f4daa797ed6e38ed64bf6a1f0100000000000000008310611374577a184f03e93ff9f4daa797ed6e38ed64bf6a1f010000000000000000838161136a57611369611ecd565b5b0492506040810190505b6d04ee2d6d415b85acef810000000083106113b1576d04ee2d6d415b85acef810000000083816113a7576113a6611ecd565b5b0492506020810190505b662386f26fc1000083106113e057662386f26fc1000083816113d6576113d5611ecd565b5b0492506010810190505b6305f5e1008310611409576305f5e10083816113ff576113fe611ecd565b5b0492506008810190505b612710831061142e57612710838161142457611423611ecd565b5b0492506004810190505b60648310611451576064838161144757611446611ecd565b5b0492506002810190505b600a8310611460576001810190505b80915050919050565b60007f01ffc9a7000000000000000000000000000000000000000000000000000000007bffffffffffffffffffffffffffffffffffffffffffffffffffffffff1916827bffffffffffffffffffffffffffffffffffffffffffffffffffffffff1916149050919050565b60008073ffffffffffffffffffffffffffffffffffffffff168373ffffffffffffffffffffffffffffffffffffffff161415801561158b57508273ffffffffffffffffffffffffffffffffffffffff168473ffffffffffffffffffffffffffffffffffffffff16148061154c575061154b8484610732565b5b8061158a57508273ffffffffffffffffffffffffffffffffffffffff16611572836108af565b73ffffffffffffffffffffffffffffffffffffffff16145b5b90509392505050565b600073ffffffffffffffffffffffffffffffffffffffff168273ffffffffffffffffffffffffffffffffffffffff16036116065760006040517f64a0ae920000000000000000000000000000000000000000000000000000000081526004016115fd91906118b2565b60405180910390fd5b600061161483836000610906565b9050600073ffffffffffffffffffffffffffffffffffffffff168173ffffffffffffffffffffffffffffffffffffffff16146116885760006040517f73c6ac6e00000000000000000000000000000000000000000000000000000000815260040161167f91906118b2565b60405180910390fd5b505050565b6000604051905090565b600080fd5b600080fd5b60007fffffffff0000000000000000000000000000000000000000000000000000000082169050919050565b6116d6816116a1565b81146116e157600080fd5b50565b6000813590506116f3816116cd565b92915050565b60006020828403121561170f5761170e611697565b5b600061171d848285016116e4565b91505092915050565b60008115159050919050565b61173b81611726565b82525050565b60006020820190506117566000830184611732565b92915050565b600081519050919050565b600082825260208201905092915050565b60005b8381101561179657808201518184015260208101905061177b565b60008484015250505050565b6000601f19601f8301169050919050565b60006117be8261175c565b6117c88185611767565b93506117d8818560208601611778565b6117e1816117a2565b840191505092915050565b6000602082019050818103600083015261180681846117b3565b905092915050565b6000819050919050565b6118218161180e565b811461182c57600080fd5b50565b60008135905061183e81611818565b92915050565b60006020828403121561185a57611859611697565b5b60006118688482850161182f565b91505092915050565b600073ffffffffffffffffffffffffffffffffffffffff82169050919050565b600061189c82611871565b9050919050565b6118ac81611891565b82525050565b60006020820190506118c760008301846118a3565b92915050565b6118d681611891565b81146118e157600080fd5b50565b6000813590506118f3816118cd565b92915050565b600080604083850312156119105761190f611697565b5b600061191e858286016118e4565b925050602061192f8582860161182f565b9150509250929050565b60008060006060848603121561195257611951611697565b5b6000611960868287016118e4565b9350506020611971868287016118e4565b92505060406119828682870161182f565b9150509250925092565b6000602082840312156119a2576119a1611697565b5b60006119b0848285016118e4565b91505092915050565b6119c28161180e565b82525050565b60006020820190506119dd60008301846119b9565b92915050565b6119ec81611726565b81146119f757600080fd5b50565b600081359050611a09816119e3565b92915050565b60008060408385031215611a2657611a25611697565b5b6000611a34858286016118e4565b9250506020611a45858286016119fa565b9150509250929050565b600080fd5b600080fd5b7f4e487b7100000000000000000000000000000000000000000000000000000000600052604160045260246000fd5b611a91826117a2565b810181811067ffffffffffffffff82111715611ab057611aaf611a59565b5b80604052505050565b6000611ac361168d565b9050611acf8282611a88565b919050565b600067ffffffffffffffff821115611aef57611aee611a59565b5b611af8826117a2565b9050602081019050919050565b82818337600083830152505050565b6000611b27611b2284611ad4565b611ab9565b905082815260208101848484011115611b4357611b42611a54565b5b611b4e848285611b05565b509392505050565b600082601f830112611b6b57611b6a611a4f565b5b8135611b7b848260208601611b14565b91505092915050565b60008060008060808587031215611b9e57611b9d611697565b5b6000611bac878288016118e4565b9450506020611bbd878288016118e4565b9350506040611bce8782880161182f565b925050606085013567ffffffffffffffff811115611bef57611bee61169c565b5b611bfb87828801611b56565b91505092959194509250565b60008060408385031215611c1e57611c1d611697565b5b6000611c2c858286016118e4565b9250506020611c3d858286016118e4565b9150509250929050565b7f4e487b7100000000000000000000000000000000000000000000000000000000600052602260045260246000fd5b60006002820490506001821680611c8e57607f821691505b602082108103611ca157611ca0611c47565b5b50919050565b6000606082019050611cbc60008301866118a3565b611cc960208301856119b9565b611cd660408301846118a3565b949350505050565b7f4e487b7100000000000000000000000000000000000000000000000000000000600052601160045260246000fd5b6000611d188261180e565b91507fffffffffffffffffffffffffffffffffffffffffffffffffffffffffffffffff8203611d4a57611d49611cde565b5b600182019050919050565b600081905092915050565b6000611d6b8261175c565b611d758185611d55565b9350611d85818560208601611778565b80840191505092915050565b7f2e6a736f6e000000000000000000000000000000000000000000000000000000815250565b6000611dc38285611d60565b9150611dcf8284611d60565b9150611dda82611d91565b6005820191508190509392505050565b600081519050919050565b600082825260208201905092915050565b6000611e1182611dea565b611e1b8185611df5565b9350611e2b818560208601611778565b611e34816117a2565b840191505092915050565b6000608082019050611e5460008301876118a3565b611e6160208301866118a3565b611e6e60408301856119b9565b8181036060830152611e808184611e06565b905095945050505050565b600081519050611e9a816116cd565b92915050565b600060208284031215611eb657611eb5611697565b5b6000611ec484828501611e8b565b91505092915050565b7f4e487b7100000000000000000000000000000000000000000000000000000000600052601260045260246000fd5b6000604082019050611f1160008301856118a3565b611f1e60208301846119b9565b939250505056fe68747470733a2f2f617175612d676967616e7469632d6c756e67666973682d38392e6d7970696e6174612e636c6f75642f697066732f516d5359396d5a70634736484466346474674748537276363656515269716e3245564d4752626b457a70326776352fa2646970667358221220f121ef36313bb3b2a0c1a926f7c041460d47bb8e0b3e62a152f08f17b21ce3e764736f6c63430008140033",
  "linkReferences": {},
  "deployedLinkReferences": {}
}